{
  "_format": "hh-sol-artifact-1",
  "contractName": "WavePortal",
  "sourceName": "contracts/WavePortal.sol",
  "abi": [
    {
      "inputs": [],
      "stateMutability": "payable",
      "type": "constructor"
    },
    {
      "anonymous": false,
      "inputs": [
        {
          "indexed": true,
          "internalType": "address",
          "name": "from",
          "type": "address"
        },
        {
          "indexed": false,
          "internalType": "uint256",
          "name": "timestamp",
          "type": "uint256"
        },
        {
          "indexed": false,
          "internalType": "string",
          "name": "message",
          "type": "string"
        }
      ],
      "name": "NewWave",
      "type": "event"
    },
    {
      "inputs": [],
      "name": "getTotalWaves",
      "outputs": [
        {
          "internalType": "uint256",
          "name": "",
          "type": "uint256"
        }
      ],
      "stateMutability": "view",
      "type": "function"
    },
    {
      "inputs": [],
      "name": "getWavers",
      "outputs": [
        {
          "components": [
            {
              "internalType": "address",
              "name": "waver",
              "type": "address"
            },
            {
              "internalType": "string",
              "name": "message",
              "type": "string"
            },
            {
              "internalType": "uint256",
              "name": "timestamp",
              "type": "uint256"
            }
          ],
          "internalType": "struct WavePortal.Wave[]",
          "name": "",
          "type": "tuple[]"
        }
      ],
      "stateMutability": "view",
      "type": "function"
    },
    {
      "inputs": [
        {
          "internalType": "string",
          "name": "_message",
          "type": "string"
        }
      ],
      "name": "wave",
      "outputs": [],
      "stateMutability": "nonpayable",
      "type": "function"
    }
  ],
  "bytecode": "0x60806040526200003360405180606001604052806025815260200162000f9b602591396200003960201b620004ac1760201c565b620001cd565b620000d98160405160240162000050919062000146565b6040516020818303038152906040527f41304fac000000000000000000000000000000000000000000000000000000007bffffffffffffffffffffffffffffffffffffffffffffffffffffffff19166020820180517bffffffffffffffffffffffffffffffffffffffffffffffffffffffff8381831617835250505050620000dc60201b60201c565b50565b60008151905060006a636f6e736f6c652e6c6f679050602083016000808483855afa5050505050565b600062000112826200016a565b6200011e818562000175565b93506200013081856020860162000186565b6200013b81620001bc565b840191505092915050565b6000602082019050818103600083015262000162818462000105565b905092915050565b600081519050919050565b600082825260208201905092915050565b60005b83811015620001a657808201518184015260208101905062000189565b83811115620001b6576000848401525b50505050565b6000601f19601f8301169050919050565b610dbe80620001dd6000396000f3fe608060405234801561001057600080fd5b50600436106100415760003560e01c8063449d46c014610046578063635f29f8146100625780639a2cdc0814610080575b600080fd5b610060600480360381019061005b9190610715565b61009e565b005b61006a6102d2565b604051610077919061094c565b60405180910390f35b610088610461565b6040516100959190610a00565b60405180910390f35b60016000808282546100b09190610b12565b92505081905550600160405180606001604052803373ffffffffffffffffffffffffffffffffffffffff16815260200183815260200142815250908060018154018082558091505060019003906000526020600020906003020160009091909190915060008201518160000160006101000a81548173ffffffffffffffffffffffffffffffffffffffff021916908373ffffffffffffffffffffffffffffffffffffffff160217905550602082015181600101908051906020019061017692919061060a565b506040820151816002015550503373ffffffffffffffffffffffffffffffffffffffff167f5f7e16dc676677766a70e9c5628aa6c54ddb8b6e5188e2ae1e1f17f1ffbea71642836040516101cb929190610a1b565b60405180910390a26000655af3107a4000905047811115610221576040517f08c379a0000000000000000000000000000000000000000000000000000000008152600401610218906109e0565b60405180910390fd5b60003373ffffffffffffffffffffffffffffffffffffffff168260405161024790610937565b60006040518083038185875af1925050503d8060008114610284576040519150601f19603f3d011682016040523d82523d6000602084013e610289565b606091505b50509050806102cd576040517f08c379a00000000000000000000000000000000000000000000000000000000081526004016102c4906109c0565b60405180910390fd5b505050565b60606103126040518060400160405280600881526020017f0a205761766572730000000000000000000000000000000000000000000000008152506104ac565b6001805480602002602001604051908101604052809291908181526020016000905b8282101561045857838290600052602060002090600302016040518060600160405290816000820160009054906101000a900473ffffffffffffffffffffffffffffffffffffffff1673ffffffffffffffffffffffffffffffffffffffff1673ffffffffffffffffffffffffffffffffffffffff1681526020016001820180546103bd90610be6565b80601f01602080910402602001604051908101604052809291908181526020018280546103e990610be6565b80156104365780601f1061040b57610100808354040283529160200191610436565b820191906000526020600020905b81548152906001019060200180831161041957829003601f168201915b5050505050815260200160028201548152505081526020019060010190610334565b50505050905090565b60006104a46040518060400160405280601781526020017f5765206861766520256420746f74616c20776176657321000000000000000000815250600054610545565b600054905090565b610542816040516024016104c0919061096e565b6040516020818303038152906040527f41304fac000000000000000000000000000000000000000000000000000000007bffffffffffffffffffffffffffffffffffffffffffffffffffffffff19166020820180517bffffffffffffffffffffffffffffffffffffffffffffffffffffffff83818316178352505050506105e1565b50565b6105dd828260405160240161055b929190610990565b6040516020818303038152906040527f9710a9d0000000000000000000000000000000000000000000000000000000007bffffffffffffffffffffffffffffffffffffffffffffffffffffffff19166020820180517bffffffffffffffffffffffffffffffffffffffffffffffffffffffff83818316178352505050506105e1565b5050565b60008151905060006a636f6e736f6c652e6c6f679050602083016000808483855afa5050505050565b82805461061690610be6565b90600052602060002090601f016020900481019282610638576000855561067f565b82601f1061065157805160ff191683800117855561067f565b8280016001018555821561067f579182015b8281111561067e578251825591602001919060010190610663565b5b50905061068c9190610690565b5090565b5b808211156106a9576000816000905550600101610691565b5090565b60006106c06106bb84610a70565b610a4b565b9050828152602081018484840111156106d857600080fd5b6106e3848285610ba4565b509392505050565b600082601f8301126106fc57600080fd5b813561070c8482602086016106ad565b91505092915050565b60006020828403121561072757600080fd5b600082013567ffffffffffffffff81111561074157600080fd5b61074d848285016106eb565b91505092915050565b600061076283836108c9565b905092915050565b61077381610b68565b82525050565b600061078482610ab1565b61078e8185610ad4565b9350836020820285016107a085610aa1565b8060005b858110156107dc57848403895281516107bd8582610756565b94506107c883610ac7565b925060208a019950506001810190506107a4565b50829750879550505050505092915050565b60006107f982610abc565b6108038185610af0565b9350610813818560208601610bb3565b61081c81610cd6565b840191505092915050565b600061083282610abc565b61083c8185610b01565b935061084c818560208601610bb3565b61085581610cd6565b840191505092915050565b600061086d602783610b01565b915061087882610ce7565b604082019050919050565b6000610890600083610ae5565b915061089b82610d36565b600082019050919050565b60006108b3603383610b01565b91506108be82610d39565b604082019050919050565b60006060830160008301516108e1600086018261076a565b50602083015184820360208601526108f982826107ee565b915050604083015161090e6040860182610919565b508091505092915050565b61092281610b9a565b82525050565b61093181610b9a565b82525050565b600061094282610883565b9150819050919050565b600060208201905081810360008301526109668184610779565b905092915050565b600060208201905081810360008301526109888184610827565b905092915050565b600060408201905081810360008301526109aa8185610827565b90506109b96020830184610928565b9392505050565b600060208201905081810360008301526109d981610860565b9050919050565b600060208201905081810360008301526109f9816108a6565b9050919050565b6000602082019050610a156000830184610928565b92915050565b6000604082019050610a306000830185610928565b8181036020830152610a428184610827565b90509392505050565b6000610a55610a66565b9050610a618282610c18565b919050565b6000604051905090565b600067ffffffffffffffff821115610a8b57610a8a610ca7565b5b610a9482610cd6565b9050602081019050919050565b6000819050602082019050919050565b600081519050919050565b600081519050919050565b6000602082019050919050565b600082825260208201905092915050565b600081905092915050565b600082825260208201905092915050565b600082825260208201905092915050565b6000610b1d82610b9a565b9150610b2883610b9a565b9250827fffffffffffffffffffffffffffffffffffffffffffffffffffffffffffffffff03821115610b5d57610b5c610c49565b5b828201905092915050565b6000610b7382610b7a565b9050919050565b600073ffffffffffffffffffffffffffffffffffffffff82169050919050565b6000819050919050565b82818337600083830152505050565b60005b83811015610bd1578082015181840152602081019050610bb6565b83811115610be0576000848401525b50505050565b60006002820490506001821680610bfe57607f821691505b60208210811415610c1257610c11610c78565b5b50919050565b610c2182610cd6565b810181811067ffffffffffffffff82111715610c4057610c3f610ca7565b5b80604052505050565b7f4e487b7100000000000000000000000000000000000000000000000000000000600052601160045260246000fd5b7f4e487b7100000000000000000000000000000000000000000000000000000000600052602260045260246000fd5b7f4e487b7100000000000000000000000000000000000000000000000000000000600052604160045260246000fd5b6000601f19601f8301169050919050565b7f4661696c656420746f207769746864726177206d6f6e65792066726f6d20636f60008201527f6e74726163742e00000000000000000000000000000000000000000000000000602082015250565b50565b7f547279696e6720746f207769746864726177206d6f7265206d6f6e657920746860008201527f616e2074686520636f6e7472616374206861730000000000000000000000000060208201525056fea2646970667358221220437c3e171dbc0f1425bf975b8a11fec7f2c06cac867b04ee10f8c4a1bfb218b664736f6c63430008040033596f20796f2c204920616d206120636f6e747261637420616e64206920616d20736d617274",
  "linkReferences": {},
  "deployedLinkReferences": {}
}