{
  "_format": "hh-sol-artifact-1",
  "contractName": "WavePortal",
  "sourceName": "contracts/WavePortal.sol",
  "abi": [
    {
      "inputs": [],
      "stateMutability": "nonpayable",
      "type": "constructor"
    },
    {
      "anonymous": false,
      "inputs": [
        {
          "indexed": true,
          "internalType": "address",
          "name": "from",
          "type": "address"
        },
        {
          "indexed": false,
          "internalType": "uint256",
          "name": "timestamp",
          "type": "uint256"
        },
        {
          "indexed": false,
          "internalType": "string",
          "name": "message",
          "type": "string"
        }
      ],
      "name": "NewWave",
      "type": "event"
    },
    {
      "inputs": [],
      "name": "getTotalWaves",
      "outputs": [
        {
          "internalType": "uint256",
          "name": "",
          "type": "uint256"
        }
      ],
      "stateMutability": "view",
      "type": "function"
    },
    {
      "inputs": [],
      "name": "getWavers",
      "outputs": [
        {
          "components": [
            {
              "internalType": "address",
              "name": "waver",
              "type": "address"
            },
            {
              "internalType": "string",
              "name": "message",
              "type": "string"
            },
            {
              "internalType": "uint256",
              "name": "timestamp",
              "type": "uint256"
            }
          ],
          "internalType": "struct WavePortal.Wave[]",
          "name": "",
          "type": "tuple[]"
        }
      ],
      "stateMutability": "view",
      "type": "function"
    },
    {
      "inputs": [
        {
          "internalType": "string",
          "name": "_message",
          "type": "string"
        }
      ],
      "name": "wave",
      "outputs": [],
      "stateMutability": "nonpayable",
      "type": "function"
    }
  ],
  "bytecode": "0x60806040523480156200001157600080fd5b506200004160405180606001604052806025815260200162000e5d602591396200004760201b620003ef1760201c565b620001db565b620000e7816040516024016200005e919062000154565b6040516020818303038152906040527f41304fac000000000000000000000000000000000000000000000000000000007bffffffffffffffffffffffffffffffffffffffffffffffffffffffff19166020820180517bffffffffffffffffffffffffffffffffffffffffffffffffffffffff8381831617835250505050620000ea60201b60201c565b50565b60008151905060006a636f6e736f6c652e6c6f679050602083016000808483855afa5050505050565b6000620001208262000178565b6200012c818562000183565b93506200013e81856020860162000194565b6200014981620001ca565b840191505092915050565b6000602082019050818103600083015262000170818462000113565b905092915050565b600081519050919050565b600082825260208201905092915050565b60005b83811015620001b457808201518184015260208101905062000197565b83811115620001c4576000848401525b50505050565b6000601f19601f8301169050919050565b610c7280620001eb6000396000f3fe608060405234801561001057600080fd5b50600436106100415760003560e01c8063449d46c014610046578063635f29f8146100625780639a2cdc0814610080575b600080fd5b610060600480360381019061005b91906106f4565b61009e565b005b61006a610215565b60405161007791906108bc565b60405180910390f35b6100886103a4565b6040516100959190610960565b60405180910390f35b60016000808282546100b09190610a67565b92505081905550600160405180606001604052803373ffffffffffffffffffffffffffffffffffffffff16815260200183815260200142815250908060018154018082558091505060019003906000526020600020906003020160009091909190915060008201518160000160006101000a81548173ffffffffffffffffffffffffffffffffffffffff021916908373ffffffffffffffffffffffffffffffffffffffff16021790555060208201518160010190805190602001906101769291906105e9565b506040820151816002015550503373ffffffffffffffffffffffffffffffffffffffff167f5f7e16dc676677766a70e9c5628aa6c54ddb8b6e5188e2ae1e1f17f1ffbea71642836040516101cb92919061097b565b60405180910390a26102126040518060400160405280600c81526020017f257320686173207761766564000000000000000000000000000000000000000081525033610488565b50565b60606102556040518060400160405280600881526020017f0a205761766572730000000000000000000000000000000000000000000000008152506103ef565b6001805480602002602001604051908101604052809291908181526020016000905b8282101561039b57838290600052602060002090600302016040518060600160405290816000820160009054906101000a900473ffffffffffffffffffffffffffffffffffffffff1673ffffffffffffffffffffffffffffffffffffffff1673ffffffffffffffffffffffffffffffffffffffff16815260200160018201805461030090610b3b565b80601f016020809104026020016040519081016040528092919081815260200182805461032c90610b3b565b80156103795780601f1061034e57610100808354040283529160200191610379565b820191906000526020600020905b81548152906001019060200180831161035c57829003601f168201915b5050505050815260200160028201548152505081526020019060010190610277565b50505050905090565b60006103e76040518060400160405280601781526020017f5765206861766520256420746f74616c20776176657321000000000000000000815250600054610524565b600054905090565b6104858160405160240161040391906108de565b6040516020818303038152906040527f41304fac000000000000000000000000000000000000000000000000000000007bffffffffffffffffffffffffffffffffffffffffffffffffffffffff19166020820180517bffffffffffffffffffffffffffffffffffffffffffffffffffffffff83818316178352505050506105c0565b50565b610520828260405160240161049e929190610900565b6040516020818303038152906040527f319af333000000000000000000000000000000000000000000000000000000007bffffffffffffffffffffffffffffffffffffffffffffffffffffffff19166020820180517bffffffffffffffffffffffffffffffffffffffffffffffffffffffff83818316178352505050506105c0565b5050565b6105bc828260405160240161053a929190610930565b6040516020818303038152906040527f9710a9d0000000000000000000000000000000000000000000000000000000007bffffffffffffffffffffffffffffffffffffffffffffffffffffffff19166020820180517bffffffffffffffffffffffffffffffffffffffffffffffffffffffff83818316178352505050506105c0565b5050565b60008151905060006a636f6e736f6c652e6c6f679050602083016000808483855afa5050505050565b8280546105f590610b3b565b90600052602060002090601f016020900481019282610617576000855561065e565b82601f1061063057805160ff191683800117855561065e565b8280016001018555821561065e579182015b8281111561065d578251825591602001919060010190610642565b5b50905061066b919061066f565b5090565b5b80821115610688576000816000905550600101610670565b5090565b600061069f61069a846109d0565b6109ab565b9050828152602081018484840111156106b757600080fd5b6106c2848285610af9565b509392505050565b600082601f8301126106db57600080fd5b81356106eb84826020860161068c565b91505092915050565b60006020828403121561070657600080fd5b600082013567ffffffffffffffff81111561072057600080fd5b61072c848285016106ca565b91505092915050565b6000610741838361084e565b905092915050565b61075281610abd565b82525050565b61076181610abd565b82525050565b600061077282610a11565b61077c8185610a34565b93508360208202850161078e85610a01565b8060005b858110156107ca57848403895281516107ab8582610735565b94506107b683610a27565b925060208a01995050600181019050610792565b50829750879550505050505092915050565b60006107e782610a1c565b6107f18185610a45565b9350610801818560208601610b08565b61080a81610c2b565b840191505092915050565b600061082082610a1c565b61082a8185610a56565b935061083a818560208601610b08565b61084381610c2b565b840191505092915050565b60006060830160008301516108666000860182610749565b506020830151848203602086015261087e82826107dc565b9150506040830151610893604086018261089e565b508091505092915050565b6108a781610aef565b82525050565b6108b681610aef565b82525050565b600060208201905081810360008301526108d68184610767565b905092915050565b600060208201905081810360008301526108f88184610815565b905092915050565b6000604082019050818103600083015261091a8185610815565b90506109296020830184610758565b9392505050565b6000604082019050818103600083015261094a8185610815565b905061095960208301846108ad565b9392505050565b600060208201905061097560008301846108ad565b92915050565b600060408201905061099060008301856108ad565b81810360208301526109a28184610815565b90509392505050565b60006109b56109c6565b90506109c18282610b6d565b919050565b6000604051905090565b600067ffffffffffffffff8211156109eb576109ea610bfc565b5b6109f482610c2b565b9050602081019050919050565b6000819050602082019050919050565b600081519050919050565b600081519050919050565b6000602082019050919050565b600082825260208201905092915050565b600082825260208201905092915050565b600082825260208201905092915050565b6000610a7282610aef565b9150610a7d83610aef565b9250827fffffffffffffffffffffffffffffffffffffffffffffffffffffffffffffffff03821115610ab257610ab1610b9e565b5b828201905092915050565b6000610ac882610acf565b9050919050565b600073ffffffffffffffffffffffffffffffffffffffff82169050919050565b6000819050919050565b82818337600083830152505050565b60005b83811015610b26578082015181840152602081019050610b0b565b83811115610b35576000848401525b50505050565b60006002820490506001821680610b5357607f821691505b60208210811415610b6757610b66610bcd565b5b50919050565b610b7682610c2b565b810181811067ffffffffffffffff82111715610b9557610b94610bfc565b5b80604052505050565b7f4e487b7100000000000000000000000000000000000000000000000000000000600052601160045260246000fd5b7f4e487b7100000000000000000000000000000000000000000000000000000000600052602260045260246000fd5b7f4e487b7100000000000000000000000000000000000000000000000000000000600052604160045260246000fd5b6000601f19601f830116905091905056fea2646970667358221220513d5a84518e45df5acb2d3e936f677a14ecd85ee714b1f4d29a6cad4566ec8664736f6c63430008040033596f20796f2c204920616d206120636f6e747261637420616e64206920616d20736d617274",
  "linkReferences": {},
  "deployedLinkReferences": {}
}