{
  "_format": "hh-sol-artifact-1",
  "contractName": "WavePortal",
  "sourceName": "contracts/WavePortal.sol",
  "abi": [
    {
      "inputs": [],
      "stateMutability": "payable",
      "type": "constructor"
    },
    {
      "anonymous": false,
      "inputs": [
        {
          "indexed": true,
          "internalType": "address",
          "name": "from",
          "type": "address"
        },
        {
          "indexed": false,
          "internalType": "uint256",
          "name": "timestamp",
          "type": "uint256"
        },
        {
          "indexed": false,
          "internalType": "string",
          "name": "message",
          "type": "string"
        }
      ],
      "name": "NewWave",
      "type": "event"
    },
    {
      "inputs": [],
      "name": "getTotalWaves",
      "outputs": [
        {
          "internalType": "uint256",
          "name": "",
          "type": "uint256"
        }
      ],
      "stateMutability": "view",
      "type": "function"
    },
    {
      "inputs": [],
      "name": "getWavers",
      "outputs": [
        {
          "components": [
            {
              "internalType": "address",
              "name": "waver",
              "type": "address"
            },
            {
              "internalType": "string",
              "name": "message",
              "type": "string"
            },
            {
              "internalType": "uint256",
              "name": "timestamp",
              "type": "uint256"
            }
          ],
          "internalType": "struct WavePortal.Wave[]",
          "name": "",
          "type": "tuple[]"
        }
      ],
      "stateMutability": "view",
      "type": "function"
    },
    {
      "inputs": [
        {
          "internalType": "address",
          "name": "",
          "type": "address"
        }
      ],
      "name": "lastWavedAt",
      "outputs": [
        {
          "internalType": "uint256",
          "name": "",
          "type": "uint256"
        }
      ],
      "stateMutability": "view",
      "type": "function"
    },
    {
      "inputs": [
        {
          "internalType": "string",
          "name": "_message",
          "type": "string"
        }
      ],
      "name": "wave",
      "outputs": [],
      "stateMutability": "nonpayable",
      "type": "function"
    }
  ],
  "bytecode": "0x608060405260644442620000149190620001a8565b62000020919062000245565b6001819055506200005560405180606001604052806025815260200162001484602591396200005b60201b6200067a1760201c565b620002ec565b620000fb8160405160240162000072919062000168565b6040516020818303038152906040527f41304fac000000000000000000000000000000000000000000000000000000007bffffffffffffffffffffffffffffffffffffffffffffffffffffffff19166020820180517bffffffffffffffffffffffffffffffffffffffffffffffffffffffff8381831617835250505050620000fe60201b60201c565b50565b60008151905060006a636f6e736f6c652e6c6f679050602083016000808483855afa5050505050565b600062000134826200018c565b62000140818562000197565b9350620001528185602086016200020f565b6200015d81620002db565b840191505092915050565b6000602082019050818103600083015262000184818462000127565b905092915050565b600081519050919050565b600082825260208201905092915050565b6000620001b58262000205565b9150620001c28362000205565b9250827fffffffffffffffffffffffffffffffffffffffffffffffffffffffffffffffff03821115620001fa57620001f96200027d565b5b828201905092915050565b6000819050919050565b60005b838110156200022f57808201518184015260208101905062000212565b838111156200023f576000848401525b50505050565b6000620002528262000205565b91506200025f8362000205565b925082620002725762000271620002ac565b5b828206905092915050565b7f4e487b7100000000000000000000000000000000000000000000000000000000600052601160045260246000fd5b7f4e487b7100000000000000000000000000000000000000000000000000000000600052601260045260246000fd5b6000601f19601f8301169050919050565b61118880620002fc6000396000f3fe608060405234801561001057600080fd5b506004361061004c5760003560e01c8063449d46c014610051578063635f29f81461006d5780639a2cdc081461008b578063a42a4663146100a9575b600080fd5b61006b600480360381019061006691906109bd565b6100d9565b005b610075610488565b6040516100829190610c26565b60405180910390f35b610093610617565b6040516100a09190610d2a565b60405180910390f35b6100c360048036038101906100be9190610994565b610662565b6040516100d09190610d2a565b60405180910390f35b42610384600260003373ffffffffffffffffffffffffffffffffffffffff1673ffffffffffffffffffffffffffffffffffffffff168152602001908152602001600020546101279190610e3c565b10610167576040517f08c379a000000000000000000000000000000000000000000000000000000000815260040161015e90610cea565b60405180910390fd5b42600260003373ffffffffffffffffffffffffffffffffffffffff1673ffffffffffffffffffffffffffffffffffffffff1681526020019081526020016000208190555060016000808282546101bd9190610e3c565b92505081905550600360405180606001604052803373ffffffffffffffffffffffffffffffffffffffff16815260200183815260200142815250908060018154018082558091505060019003906000526020600020906003020160009091909190915060008201518160000160006101000a81548173ffffffffffffffffffffffffffffffffffffffff021916908373ffffffffffffffffffffffffffffffffffffffff1602179055506020820151816001019080519060200190610283929190610874565b506040820151816002015550503373ffffffffffffffffffffffffffffffffffffffff167f5f7e16dc676677766a70e9c5628aa6c54ddb8b6e5188e2ae1e1f17f1ffbea71642836040516102d8929190610d45565b60405180910390a2606444426102ee9190610e3c565b6102f89190610f73565b60018190555061033f6040518060400160405280601981526020017f52616e646f6d20736565642067656e6572617465643a20256400000000000000815250600154610713565b603260015411610485576103886040518060400160405280600681526020017f257320776f6e0000000000000000000000000000000000000000000000000000815250336107af565b6000655af3107a40009050478111156103d6576040517f08c379a00000000000000000000000000000000000000000000000000000000081526004016103cd90610d0a565b60405180910390fd5b60003373ffffffffffffffffffffffffffffffffffffffff16826040516103fc90610c11565b60006040518083038185875af1925050503d8060008114610439576040519150601f19603f3d011682016040523d82523d6000602084013e61043e565b606091505b5050905080610482576040517f08c379a000000000000000000000000000000000000000000000000000000000815260040161047990610cca565b60405180910390fd5b50505b50565b60606104c86040518060400160405280600881526020017f0a2057617665727300000000000000000000000000000000000000000000000081525061067a565b6003805480602002602001604051908101604052809291908181526020016000905b8282101561060e57838290600052602060002090600302016040518060600160405290816000820160009054906101000a900473ffffffffffffffffffffffffffffffffffffffff1673ffffffffffffffffffffffffffffffffffffffff1673ffffffffffffffffffffffffffffffffffffffff16815260200160018201805461057390610f10565b80601f016020809104026020016040519081016040528092919081815260200182805461059f90610f10565b80156105ec5780601f106105c1576101008083540402835291602001916105ec565b820191906000526020600020905b8154815290600101906020018083116105cf57829003601f168201915b50505050508152602001600282015481525050815260200190600101906104ea565b50505050905090565b600061065a6040518060400160405280601781526020017f5765206861766520256420746f74616c20776176657321000000000000000000815250600054610713565b600054905090565b60026020528060005260406000206000915090505481565b6107108160405160240161068e9190610c48565b6040516020818303038152906040527f41304fac000000000000000000000000000000000000000000000000000000007bffffffffffffffffffffffffffffffffffffffffffffffffffffffff19166020820180517bffffffffffffffffffffffffffffffffffffffffffffffffffffffff838183161783525050505061084b565b50565b6107ab8282604051602401610729929190610c9a565b6040516020818303038152906040527f9710a9d0000000000000000000000000000000000000000000000000000000007bffffffffffffffffffffffffffffffffffffffffffffffffffffffff19166020820180517bffffffffffffffffffffffffffffffffffffffffffffffffffffffff838183161783525050505061084b565b5050565b61084782826040516024016107c5929190610c6a565b6040516020818303038152906040527f319af333000000000000000000000000000000000000000000000000000000007bffffffffffffffffffffffffffffffffffffffffffffffffffffffff19166020820180517bffffffffffffffffffffffffffffffffffffffffffffffffffffffff838183161783525050505061084b565b5050565b60008151905060006a636f6e736f6c652e6c6f679050602083016000808483855afa5050505050565b82805461088090610f10565b90600052602060002090601f0160209004810192826108a257600085556108e9565b82601f106108bb57805160ff19168380011785556108e9565b828001600101855582156108e9579182015b828111156108e85782518255916020019190600101906108cd565b5b5090506108f691906108fa565b5090565b5b808211156109135760008160009055506001016108fb565b5090565b600061092a61092584610d9a565b610d75565b90508281526020810184848401111561094257600080fd5b61094d848285610ece565b509392505050565b6000813590506109648161113b565b92915050565b600082601f83011261097b57600080fd5b813561098b848260208601610917565b91505092915050565b6000602082840312156109a657600080fd5b60006109b484828501610955565b91505092915050565b6000602082840312156109cf57600080fd5b600082013567ffffffffffffffff8111156109e957600080fd5b6109f58482850161096a565b91505092915050565b6000610a0a8383610ba3565b905092915050565b610a1b81610e92565b82525050565b610a2a81610e92565b82525050565b6000610a3b82610ddb565b610a458185610dfe565b935083602082028501610a5785610dcb565b8060005b85811015610a935784840389528151610a7485826109fe565b9450610a7f83610df1565b925060208a01995050600181019050610a5b565b50829750879550505050505092915050565b6000610ab082610de6565b610aba8185610e1a565b9350610aca818560208601610edd565b610ad381611060565b840191505092915050565b6000610ae982610de6565b610af38185610e2b565b9350610b03818560208601610edd565b610b0c81611060565b840191505092915050565b6000610b24602783610e2b565b9150610b2f82611071565b604082019050919050565b6000610b47602083610e2b565b9150610b52826110c0565b602082019050919050565b6000610b6a600083610e0f565b9150610b75826110e9565b600082019050919050565b6000610b8d603383610e2b565b9150610b98826110ec565b604082019050919050565b6000606083016000830151610bbb6000860182610a12565b5060208301518482036020860152610bd38282610aa5565b9150506040830151610be86040860182610bf3565b508091505092915050565b610bfc81610ec4565b82525050565b610c0b81610ec4565b82525050565b6000610c1c82610b5d565b9150819050919050565b60006020820190508181036000830152610c408184610a30565b905092915050565b60006020820190508181036000830152610c628184610ade565b905092915050565b60006040820190508181036000830152610c848185610ade565b9050610c936020830184610a21565b9392505050565b60006040820190508181036000830152610cb48185610ade565b9050610cc36020830184610c02565b9392505050565b60006020820190508181036000830152610ce381610b17565b9050919050565b60006020820190508181036000830152610d0381610b3a565b9050919050565b60006020820190508181036000830152610d2381610b80565b9050919050565b6000602082019050610d3f6000830184610c02565b92915050565b6000604082019050610d5a6000830185610c02565b8181036020830152610d6c8184610ade565b90509392505050565b6000610d7f610d90565b9050610d8b8282610f42565b919050565b6000604051905090565b600067ffffffffffffffff821115610db557610db4611031565b5b610dbe82611060565b9050602081019050919050565b6000819050602082019050919050565b600081519050919050565b600081519050919050565b6000602082019050919050565b600082825260208201905092915050565b600081905092915050565b600082825260208201905092915050565b600082825260208201905092915050565b6000610e4782610ec4565b9150610e5283610ec4565b9250827fffffffffffffffffffffffffffffffffffffffffffffffffffffffffffffffff03821115610e8757610e86610fa4565b5b828201905092915050565b6000610e9d82610ea4565b9050919050565b600073ffffffffffffffffffffffffffffffffffffffff82169050919050565b6000819050919050565b82818337600083830152505050565b60005b83811015610efb578082015181840152602081019050610ee0565b83811115610f0a576000848401525b50505050565b60006002820490506001821680610f2857607f821691505b60208210811415610f3c57610f3b611002565b5b50919050565b610f4b82611060565b810181811067ffffffffffffffff82111715610f6a57610f69611031565b5b80604052505050565b6000610f7e82610ec4565b9150610f8983610ec4565b925082610f9957610f98610fd3565b5b828206905092915050565b7f4e487b7100000000000000000000000000000000000000000000000000000000600052601160045260246000fd5b7f4e487b7100000000000000000000000000000000000000000000000000000000600052601260045260246000fd5b7f4e487b7100000000000000000000000000000000000000000000000000000000600052602260045260246000fd5b7f4e487b7100000000000000000000000000000000000000000000000000000000600052604160045260246000fd5b6000601f19601f8301169050919050565b7f4661696c656420746f207769746864726177206d6f6e65792066726f6d20636f60008201527f6e74726163742e00000000000000000000000000000000000000000000000000602082015250565b7f57616974203135206d696e75746573206265666f7265206e6578742077617665600082015250565b50565b7f547279696e6720746f207769746864726177206d6f7265206d6f6e657920746860008201527f616e2074686520636f6e74726163742068617300000000000000000000000000602082015250565b61114481610e92565b811461114f57600080fd5b5056fea26469706673582212205ff2a6f16f58dcf10d0690c4213f03a5cc2fa4c5d4d554f6c350bc8c7671181e64736f6c63430008040033596f20796f2c204920616d206120636f6e747261637420616e64206920616d20736d617274",
  "linkReferences": {},
  "deployedLinkReferences": {}
}